:020000040000FA
:10000000012883168801051487019F151F159F1469
:100010001F101F179F1383129F171F139F121F126A
:100020009F111F141F151F1913281E08880012285E
:100030002D202D202D202D202D202D202D202D2058
:100040002D202D202D202D202D202D202D202D2048
:100050002D202D202D202D200800C83031283230B1
:100060003128A100B430A0000000A00B4728A10B4C
:10007000322808000000000000000A304428033045
:100080004428033044280530A100A530A000A00B6F
:100090004728A10B45280800A430000058285130FB
:1000A00058281F3058280E3000005828063058288D
:0C00B000A000A00B592808000000080068
:0400BC0000340034D8
:02400E00323F3F
:00000001FF
