:100000000128831686018312831200308600082897
:10001000881B0F282B280828210886000800FF309D
:10002000A1000C20FE30A1000C20FD30A1000C200E
:10003000FB30A1000C20F730A1000C20EF30A10014
:100040000C20DF30A1000C20BF30A1000C207F303D
:10005000A1000C2008287F30A1000C20BF30A10097
:100060000C20DF30A1000C20EF30A1000C20F73075
:10007000A1000C20FB30A1000C20FD30A1000C20C1
:08008000FE30A1000C2008284D
:02400E00713F00
:00000001FF
