:10000000012883168601880183128312003086003E
:1000100088000A28871B18283428871A0A284D28A0
:1000200021088600080021088800871A0A2808008D
:10003000FF30A1001020FE30A1001020FD30A100F3
:100040001020FB30A1001020F730A1001020EF306D
:10005000A1001020DF30A1001020BF30A10010202F
:100060007F30A10010200D287F30A1001020BF306C
:10007000A1001020DF30A1001020EF30A1001020DF
:10008000F730A1001020FB30A1001020FD30A100AE
:100090001020FE30A10010200D287F30A100132079
:1000A0003030A10013206D30A10013207930A10061
:1000B00013203330A10013205B30A10013205F30E8
:1000C000A10013207030A10013207F30A100132065
:0800D0007B30A10013200A2877
:02400E00713F00
:00000001FF
